{
  "_format": "hh-sol-artifact-1",
  "contractName": "Ticketing",
  "sourceName": "contracts/Ticketing.sol",
  "abi": [
    {
      "inputs": [
        {
          "internalType": "uint256",
          "name": "eventId",
          "type": "uint256"
        }
      ],
      "name": "buyTicket",
      "outputs": [],
      "stateMutability": "payable",
      "type": "function"
    },
    {
      "inputs": [
        {
          "internalType": "string",
          "name": "_name",
          "type": "string"
        },
        {
          "internalType": "uint256",
          "name": "_price",
          "type": "uint256"
        },
        {
          "internalType": "uint256",
          "name": "_ticketsAvailable",
          "type": "uint256"
        }
      ],
      "name": "createEvent",
      "outputs": [],
      "stateMutability": "nonpayable",
      "type": "function"
    },
    {
      "inputs": [],
      "name": "eventCount",
      "outputs": [
        {
          "internalType": "uint256",
          "name": "",
          "type": "uint256"
        }
      ],
      "stateMutability": "view",
      "type": "function"
    },
    {
      "inputs": [
        {
          "internalType": "uint256",
          "name": "",
          "type": "uint256"
        }
      ],
      "name": "events",
      "outputs": [
        {
          "internalType": "string",
          "name": "name",
          "type": "string"
        },
        {
          "internalType": "uint256",
          "name": "price",
          "type": "uint256"
        },
        {
          "internalType": "uint256",
          "name": "ticketsAvailable",
          "type": "uint256"
        }
      ],
      "stateMutability": "view",
      "type": "function"
    }
  ],
  "bytecode": "0x6080604052348015600f57600080fd5b50610b508061001f6000396000f3fe60806040526004361061003f5760003560e01c80630b7914301461004457806367dd74ca1461008357806371be2e4a1461009f5780639e9580f6146100ca575b600080fd5b34801561005057600080fd5b5061006b6004803603810190610066919061038f565b6100f3565b60405161007a9392919061045b565b60405180910390f35b61009d6004803603810190610098919061038f565b6101a5565b005b3480156100ab57600080fd5b506100b46102c6565b6040516100c19190610499565b60405180910390f35b3480156100d657600080fd5b506100f160048036038101906100ec91906105e9565b6102cc565b005b600060205280600052604060002060009150905080600001805461011690610687565b80601f016020809104026020016040519081016040528092919081815260200182805461014290610687565b801561018f5780601f106101645761010080835404028352916020019161018f565b820191906000526020600020905b81548152906001019060200180831161017257829003601f168201915b5050505050908060010154908060020154905083565b60015481106101e9576040517f08c379a00000000000000000000000000000000000000000000000000000000081526004016101e090610704565b60405180910390fd5b600080828152602001908152602001600020600101543414610240576040517f08c379a000000000000000000000000000000000000000000000000000000000815260040161023790610770565b60405180910390fd5b60008060008381526020019081526020016000206002015411610298576040517f08c379a000000000000000000000000000000000000000000000000000000000815260040161028f906107dc565b60405180910390fd5b60008082815260200190815260200160002060020160008154809291906102be9061082b565b919050555050565b60015481565b604051806060016040528084815260200183815260200182815250600080600154815260200190815260200160002060008201518160000190816103109190610a00565b5060208201518160010155604082015181600201559050506001600081548092919061033b90610ad2565b9190505550505050565b6000604051905090565b600080fd5b600080fd5b6000819050919050565b61036c81610359565b811461037757600080fd5b50565b60008135905061038981610363565b92915050565b6000602082840312156103a5576103a461034f565b5b60006103b38482850161037a565b91505092915050565b600081519050919050565b600082825260208201905092915050565b60005b838110156103f65780820151818401526020810190506103db565b60008484015250505050565b6000601f19601f8301169050919050565b600061041e826103bc565b61042881856103c7565b93506104388185602086016103d8565b61044181610402565b840191505092915050565b61045581610359565b82525050565b600060608201905081810360008301526104758186610413565b9050610484602083018561044c565b610491604083018461044c565b949350505050565b60006020820190506104ae600083018461044c565b92915050565b600080fd5b600080fd5b7f4e487b7100000000000000000000000000000000000000000000000000000000600052604160045260246000fd5b6104f682610402565b810181811067ffffffffffffffff82111715610515576105146104be565b5b80604052505050565b6000610528610345565b905061053482826104ed565b919050565b600067ffffffffffffffff821115610554576105536104be565b5b61055d82610402565b9050602081019050919050565b82818337600083830152505050565b600061058c61058784610539565b61051e565b9050828152602081018484840111156105a8576105a76104b9565b5b6105b384828561056a565b509392505050565b600082601f8301126105d0576105cf6104b4565b5b81356105e0848260208601610579565b91505092915050565b6000806000606084860312156106025761060161034f565b5b600084013567ffffffffffffffff8111156106205761061f610354565b5b61062c868287016105bb565b935050602061063d8682870161037a565b925050604061064e8682870161037a565b9150509250925092565b7f4e487b7100000000000000000000000000000000000000000000000000000000600052602260045260246000fd5b6000600282049050600182168061069f57607f821691505b6020821081036106b2576106b1610658565b5b50919050565b7f4576656e7420646f6573206e6f74206578697374000000000000000000000000600082015250565b60006106ee6014836103c7565b91506106f9826106b8565b602082019050919050565b6000602082019050818103600083015261071d816106e1565b9050919050565b7f496e636f727265637420616d6f756e742073656e740000000000000000000000600082015250565b600061075a6015836103c7565b915061076582610724565b602082019050919050565b600060208201905081810360008301526107898161074d565b9050919050565b7f4e6f207469636b657473206c6566740000000000000000000000000000000000600082015250565b60006107c6600f836103c7565b91506107d182610790565b602082019050919050565b600060208201905081810360008301526107f5816107b9565b9050919050565b7f4e487b7100000000000000000000000000000000000000000000000000000000600052601160045260246000fd5b600061083682610359565b915060008203610849576108486107fc565b5b600182039050919050565b60008190508160005260206000209050919050565b60006020601f8301049050919050565b600082821b905092915050565b6000600883026108b67fffffffffffffffffffffffffffffffffffffffffffffffffffffffffffffffff82610879565b6108c08683610879565b95508019841693508086168417925050509392505050565b6000819050919050565b60006108fd6108f86108f384610359565b6108d8565b610359565b9050919050565b6000819050919050565b610917836108e2565b61092b61092382610904565b848454610886565b825550505050565b600090565b610940610933565b61094b81848461090e565b505050565b5b8181101561096f57610964600082610938565b600181019050610951565b5050565b601f8211156109b45761098581610854565b61098e84610869565b8101602085101561099d578190505b6109b16109a985610869565b830182610950565b50505b505050565b600082821c905092915050565b60006109d7600019846008026109b9565b1980831691505092915050565b60006109f083836109c6565b9150826002028217905092915050565b610a09826103bc565b67ffffffffffffffff811115610a2257610a216104be565b5b610a2c8254610687565b610a37828285610973565b600060209050601f831160018114610a6a5760008415610a58578287015190505b610a6285826109e4565b865550610aca565b601f198416610a7886610854565b60005b82811015610aa057848901518255600182019150602085019450602081019050610a7b565b86831015610abd5784890151610ab9601f8916826109c6565b8355505b6001600288020188555050505b505050505050565b6000610add82610359565b91507fffffffffffffffffffffffffffffffffffffffffffffffffffffffffffffffff8203610b0f57610b0e6107fc565b5b60018201905091905056fea264697066735822122077d99ebfc6881541be5dee1e8fc7dc13c9a1f6d1048dfd36cc5661de2882db9d64736f6c634300081c0033",
  "linkReferences": {},
  "deployedLinkReferences": {}
}